:100000000C942A000C9434000C9434000C943400AA
:100010000C9434000C9434000C9434000C94340090
:100020000C9434000C9434000C9434000C94340080
:100030000C9434000C9434000C9434000C94340070
:100040000C9434000C9434000C9434000C94340060
:100050000C94340011241FBECFE5D8E0DEBFCDBF25
:100060000E94A9000C94B1000C9400004130B1F53D
:10007000813099F0813030F08230D1F0833009F056
:1000800067C021C02BB381E090E002C0880F991FA8
:100090006A95E2F7282B2BBB089528B381E090E006
:1000A00002C0880F991F6A95E2F7282B28BB089594
:1000B00025B381E090E002C0880F991F6A95E2F7AE
:1000C000282B25BB089522B381E090E002C0880F61
:1000D000991F6A95E2F7282B22BB08954423C1F5A6
:1000E000813099F0813028F08230D9F0833081F569
:1000F00024C02BB381E090E002C0880F991F6A955D
:10010000E2F7809582238BBB089528B381E090E0CD
:1001100002C0880F991F6A95E2F78095822388BBF9
:10012000089525B381E090E002C0880F991F6A9579
:10013000E2F78095822385BB089522B381E090E0A9
:1001400002C0880F991F6A95E2F78095822382BBCF
:1001500008958BB360E041E00E94360080E090E0BB
:060160000895F894FFCFA2
:00000001FF
