:100000000C942A000C9447000C9447000C94470071
:100010000C9447000C9447000C9447000C94470044
:100020000C9447000C9447000C9447000C94470034
:100030000C9447000C9495000C94BF000C94C900DC
:100040000C9447000C9447000C9447000C94470014
:100050000C94470011241FBECFE5D8E0DEBFCDBF12
:1000600010E0A0E6B0E0E0EBFBE002C005900D92EE
:10007000A438B107D9F710E0A4E8B0E001C01D92A0
:10008000AE38B107E1F70E94B6020C94D6050C9485
:1000900000005D9BFECF8CB908955F9BFECF8CB1B5
:1000A00008955F99FECF8CB108959C0140E050E027
:1000B00060E072E18AE790E00E94EB0284E036950E
:1000C00027958A95E1F72150822F807780BD2F7088
:1000D00029B90895009721F09093850080938400BA
:1000E0000895009721F090938700809386000895EB
:1000F000FC0104C05D9BFECF8CB9319680818823C2
:10010000C9F70895FC0120E030E00BC0DF015F9BE0
:10011000FECF8CB181938A3011F41C9208952F5F29
:100120003F4F2617370790F308951F920F920FB68F
:100130000F9211242F933F934F935F936F937F936D
:100140008F939F93AF93BF93EF93FF93E0918600BC
:10015000F0918700309711F08CB10995FF91EF91E4
:10016000BF91AF919F918F917F916F915F914F91CF
:100170003F912F910F900FBE0F901F9018951F92D7
:100180000F920FB60F9211240F900FBE0F901F9079
:1001900018951F920F920FB60F9211242F933F9331
:1001A0004F935F936F937F938F939F93AF93BF937F
:1001B000EF93FF93E0918400F0918500309709F070
:1001C0000995FF91EF91BF91AF919F918F917F9191
:1001D0006F915F914F913F912F910F900FBE0F90B4
:1001E0001F901895539A83E061E041E00E94080156
:1001F000549A83E060E040E00E94080156985798C6
:100200005598529886E880BD10BC83E389B908955B
:100210004130B1F5813099F0813030F08230D1F049
:10022000833009F067C021C02AB381E090E002C0AA
:10023000880F991F6A95E2F7282B2ABB089527B3E8
:1002400081E090E002C0880F991F6A95E2F7282BA1
:1002500027BB089524B381E090E002C0880F991F66
:100260006A95E2F7282B24BB089521B381E090E042
:1002700002C0880F991F6A95E2F7282B21BB0895C9
:100280004423C1F5813099F0813028F08230D9F0D3
:10029000833081F524C02AB381E090E002C0880F4A
:1002A000991F6A95E2F7809582238ABB089527B348
:1002B00081E090E002C0880F991F6A95E2F780956F
:1002C000822387BB089524B381E090E002C0880FA9
:1002D000991F6A95E2F78095822384BB089521B324
:1002E00081E090E002C0880F991F6A95E2F780953F
:1002F000822381BB08954130B1F5813099F081307E
:1003000030F08230D1F0833009F067C021C02BB3C8
:1003100081E090E002C0880F991F6A95E2F7282BD0
:100320002BBB089528B381E090E002C0880F991F8D
:100330006A95E2F7282B28BB089525B381E090E069
:1003400002C0880F991F6A95E2F7282B25BB0895F4
:1003500022B381E090E002C0880F991F6A95E2F70E
:10036000282B22BB08954423C1F5813099F08130B8
:1003700028F08230D9F0833081F524C02BB381E09E
:1003800090E002C0880F991F6A95E2F7809582235A
:100390008BBB089528B381E090E002C0880F991FBD
:1003A0006A95E2F78095822388BB089525B381E0A2
:1003B00090E002C0880F991F6A95E2F7809582232A
:1003C00085BB089522B381E090E002C0880F991F99
:1003D0006A95E2F78095822382BB0895813091F07F
:1003E000813028F08230C9F0833061F521C02BB311
:1003F00081E090E002C0880F991F6A95E2F72827F4
:100400002BBB089528B381E090E002C0880F991FAC
:100410006A95E2F7282728BB089525B381E090E08C
:1004200002C0880F991F6A95E2F7282725BB089517
:1004300022B381E090E002C0880F991F6A95E2F72D
:10044000282722BB0895813051F0813030F082306E
:1004500041F0833079F080E0089589B303C086B31A
:1004600001C083B390E002C0959587956A95E2F745
:100470008170089580B390E002C0959587956A9544
:10048000E2F781700895813049F0813028F08230A0
:1004900039F0833041F406C06ABB089567BB089504
:1004A00064BB089561BB0895813049F0813028F024
:1004B000823039F0833041F406C06BBB089568BBCD
:1004C000089565BB089562BB0895382F70E0022E31
:1004D00002C0660F771F0A94E2F781E090E002C045
:1004E000880F991F4A95E2F7019702C0880F991F5C
:1004F0002A95E2F7282F313079F0313028F0323068
:1005000099F0333001F518C09BB3822F8095892371
:100510002623822B8BBB089598B3822F8095892345
:100520002623822B88BB089595B3822F809589233B
:100530002623822B85BB089592B3822F8095892331
:100540002623822B82BB0895813051F0813030F018
:10055000823041F0833041F080E0089589B30895FE
:1005600086B3089583B3089580B30895EF92FF9200
:100570000F931F93CF93DF9386E790E090938B00C8
:1005800080938A000E94F200C0E0D0E080E6E82E6E
:1005900080E0F82E08EC10E0219600D000D0EDB7F6
:1005A000FEB7F282E182D483C3830E940D0380E10F
:1005B00097E20F900F900F900F90F8013197F1F79D
:1005C0000197D9F7CA30D10539F7FFCF0E9449000A
:1005D00080E090E00895A1E21A2EAA1BBB1BFD014A
:1005E0000DC0AA1FBB1FEE1FFF1FA217B307E40712
:1005F000F50720F0A21BB30BE40BF50B661F771F6A
:10060000881F991F1A9469F7609570958095909549
:100610009B01AC01BD01CF010895A0E0B0E0E3E192
:10062000F3E00C94AF05FE013596619171918091D4
:100630008A0090918B00AF010E9422032096E2E095
:100640000C94CB05ABE0B0E0E8E2F3E00C949F053E
:100650003C012B015A01FC0117821682838181FD26
:1006600003C06FEF7FEFC6C19AE0892E1E01089488
:10067000211C311CF3012381F20123FD859123FF0D
:1006800081912F01882309F4B2C1853239F423FD09
:10069000859123FF81912F01853229F490E0B301E8
:1006A0000E941505E7CF982FFF24EE249924FFE13F
:1006B000FF15D0F09B3269F09C3228F4903259F04B
:1006C000933291F40EC09D3249F0903369F441E0C9
:1006D00024C052E0F52A84E0F82A28C098E0F92ADC
:1006E00025C0E0E1FE2A22C0F7FC29C0892F8053F3
:1006F0008A3070F4F6FE05C0989C902C1124980E58
:1007000015C0E89CE02C1124E80EF0E2FF2A0EC090
:100710009E3229F4F6FC6BC140E4F42A07C09C36F3
:1007200019F450E8F52A02C0983649F4F20123FD85
:10073000959123FF91912F01992309F0B8CF892F2B
:100740008554833018F08052833038F444E050E010
:10075000A40EB51E5FE359830FC0933631F0933773
:1007600079F0933509F056C020C0F5018081898366
:1007700042E050E0A40EB51E610101E010E012C09D
:10078000F501C080D180F6FC03C06FEF7FEF02C09F
:10079000692D70E042E050E0A40EB51EC6010E9433
:1007A0000A058C015FE7F52214C0F501C080D180F5
:1007B000F6FC03C06FEF7FEF02C0692D70E042E0EE
:1007C00050E0A40EB51EC6010E94FF048C0150E843
:1007D000F52AF3FE07C01AC080E290E0B3010E9440
:1007E0001505EA948E2D90E008171907A8F30EC09E
:1007F000F601F7FC8591F7FE81916F0190E0B3015E
:100800000E941505E110EA940150104001151105F0
:1008100079F7EAC0943611F0993669F5F7FE08C009
:10082000F501208131814281538184E090E00AC04A
:10083000F501808191819C01442737FD4095542F1B
:1008400082E090E0A80EB91E9FE6F92257FF09C08A
:1008500050954095309521953F4F4F4F5F4FE0E8C1
:10086000FE2ACA01B901A1012AE030E00E94410537
:10087000D82ED21840C0953729F41F2D1F7E2AE0AC
:1008800030E01DC01F2D197F9F3661F0903720F496
:10089000983509F0ACC00FC0903739F0983709F09F
:1008A000A6C004C028E030E00AC0106114FD146046
:1008B00020E130E004C014FD166020E132E017FFB3
:1008C00008C0F501608171818281938144E050E02C
:1008D00008C0F50180819181BC0180E090E042E098
:1008E00050E0A40EB51EA1010E944105D82ED218D9
:1008F0008FE7F82EF122F6FE0BC05EEFF522D91439
:1009000038F4F4FE07C0F2FC05C08FEEF82202C0F6
:100910001D2D01C0192DF4FE0DC0FE01ED0DF11DC0
:100920008081803319F499EEF92208C01F5FF2FE2E
:1009300005C003C08F2D867809F01F5F0F2DF3FCD3
:1009400014C0F0FE0FC01E1510F09D2C0BC09D2C86
:100950009E0C911A1E2D06C080E290E0B3010E9409
:1009600015051F5F1E15C0F304C01E1510F4E11A13
:1009700001C0EE2404FF0FC080E390E0B3010E94A9
:10098000150502FF1DC001FD03C088E790E00EC001
:1009900088E590E00BC0802F867891F001FF02C0BF
:1009A0008BE201C080E2F7FC8DE290E0B3010E948F
:1009B000150506C080E390E0B3010E9415059A94E6
:1009C000D914C0F3DA94F101ED0DF11D808190E0AE
:1009D000B3010E941505DD20A9F706C080E290E072
:1009E000B3010E941505EA94EE20C1F743CEF3014E
:1009F00066817781CB012B96E2E10C94BB05FC016B
:100A00000590615070400110D8F7809590958E0F39
:100A10009F1F0895FC016150704001900110D8F7AC
:100A2000809590958E0F9F1F08950F931F93CF93DE
:100A3000DF938C01EB018B8181FF1BC082FF0DC016
:100A40002E813F818C819D812817390764F4E881CC
:100A5000F9810193F983E88306C0E885F985802F41
:100A60000995892B31F48E819F8101969F838E8316
:100A700002C00FEF1FEFC801DF91CF911F910F91BF
:100A80000895FA01AA27283051F1203181F1E89424
:100A90006F936E7F6E5F7F4F8F4F9F4FAF4FB1E071
:100AA0003ED0B4E03CD0670F781F891F9A1FA11D6C
:100AB000680F791F8A1F911DA11D6A0F711D811D6D
:100AC000911DA11D20D009F468943F912AE0269F32
:100AD00011243019305D3193DEF6CF010895462F91
:100AE0004770405D4193B3E00FD0C9F7F6CF462F72
:100AF0004F70405D4A3318F0495D31FD40524193DB
:100B000002D0A9F7EACFB4E0A69597958795779597
:100B10006795BA95C9F700976105710508959B011E
:100B2000AC010A2E06945795479537952795BA95A7
:100B3000C9F7620F731F841F951FA01D08952F9280
:100B40003F924F925F926F927F928F929F92AF925D
:100B5000BF92CF92DF92EF92FF920F931F93CF93AA
:100B6000DF93CDB7DEB7CA1BDB0B0FB6F894DEBF41
:100B70000FBECDBF09942A88398848885F846E8467
:100B80007D848C849B84AA84B984C884DF80EE80B1
:100B9000FD800C811B81AA81B981CE0FD11D0FB6BA
:100BA000F894DEBF0FBECDBFED010895F894FFCFDE
:100BB0007468697320697320746865202564206CEB
:100BC000696E650D0A000000000200000000E602E8
:040BD0000000000021
:00000001FF
