:100000000C942A000C9434000C9434000C943400AA
:100010000C9434000C9434000C9434000C94340090
:100020000C9434000C9434000C9434000C94340080
:100030000C9434000C9434000C9434000C94340070
:100040000C9434000C9434000C9434000C94340060
:100050000C94340011241FBECFE5D8E0DEBFCDBF25
:100060000E94E4010C9400020C9400004130B1F5B0
:10007000813099F0813030F08230D1F0833009F056
:1000800067C021C02AB381E090E002C0880F991FA9
:100090006A95E2F7282B2ABB089527B381E090E008
:1000A00002C0880F991F6A95E2F7282B27BB089595
:1000B00024B381E090E002C0880F991F6A95E2F7AF
:1000C000282B24BB089521B381E090E002C0880F63
:1000D000991F6A95E2F7282B21BB08954423C1F5A7
:1000E000813099F0813028F08230D9F0833081F569
:1000F00024C02AB381E090E002C0880F991F6A955E
:10010000E2F7809582238ABB089527B381E090E0CF
:1001100002C0880F991F6A95E2F78095822387BBFA
:10012000089524B381E090E002C0880F991F6A957A
:10013000E2F78095822384BB089521B381E090E0AB
:1001400002C0880F991F6A95E2F78095822381BBD0
:1001500008954130B1F5813099F0813030F082302E
:10016000D1F0833009F067C021C02BB381E090E06B
:1001700002C0880F991F6A95E2F7282B2BBB0895C0
:1001800028B381E090E002C0880F991F6A95E2F7DA
:10019000282B28BB089525B381E090E002C0880F8A
:1001A000991F6A95E2F7282B25BB089522B381E0B9
:1001B00090E002C0880F991F6A95E2F7282B22BBB6
:1001C00008954423C1F5813099F0813028F08230C0
:1001D000D9F0833081F524C02BB381E090E002C0D8
:1001E000880F991F6A95E2F7809582238BBB08954B
:1001F00028B381E090E002C0880F991F6A95E2F76A
:100200008095822388BB089525B381E090E002C0E9
:10021000880F991F6A95E2F78095822385BB089520
:1002200022B381E090E002C0880F991F6A95E2F73F
:100230008095822382BB0895813091F0813028F02F
:100240008230C9F0833061F521C02BB381E090E0AA
:1002500002C0880F991F6A95E2F728272BBB0895E3
:1002600028B381E090E002C0880F991F6A95E2F7F9
:10027000282728BB089525B381E090E002C0880FAD
:10028000991F6A95E2F7282725BB089522B381E0DC
:1002900090E002C0880F991F6A95E2F7282722BBD9
:1002A0000895813051F0813030F0823041F0833058
:1002B00079F080E0089589B303C086B301C083B3A9
:1002C00090E002C0959587956A95E2F78170089550
:1002D00080B390E002C0959587956A95E2F78170AA
:1002E0000895813049F0813028F0823039F0833030
:1002F00041F406C06ABB089567BB089564BB0895C6
:1003000061BB0895813049F0813028F0823039F0A6
:10031000833041F406C06BBB089568BB089565BB8C
:10032000089562BB0895382F70E0022E02C0660F58
:10033000771F0A94E2F781E090E002C0880F991FCE
:100340004A95E2F7019702C0880F991F2A95E2F7B4
:10035000282F313079F0313028F0323099F03330B5
:1003600001F518C09BB3822F809589232623822B09
:100370008BBB089598B3822F809589232623822BE7
:1003800088BB089595B3822F809589232623822BDD
:1003900085BB089592B3822F809589232623822BD3
:1003A00082BB0895813051F0813030F0823041F0CD
:1003B000833041F080E0089589B3089586B30895AD
:1003C00083B3089580B30895D09AD198D99AA9E3B8
:1003D000B0E028EC30E0C9990DC08BB38160129673
:1003E0008C93129780E197E2F9013197F1F7019729
:1003F000D9F7F1CF8BB38E7F12968C931297EBCFF8
:04040000F894FFCF9E
:00000001FF
