:100000000C942A000C943F000C943F000C943F0089
:100010000C943F000C943F000C943F000C943F0064
:100020000C943F000C943F000C943F000C943F0054
:100030000C943F000C943F000C943F000C943F0044
:100040000C943F000C943F000C943F000C943F0034
:100050000C943F0011241FBECFE5D8E0DEBFCDBF1A
:1000600011E0A0E6B0E0EAE4F7E102C005900D92ED
:10007000A839B107D9F70E94FC0A0C94A30B0C9481
:100080000000EF92FF920F931F937B018C0120E001
:1000900030E040E05FE40E94410388238CF0C80117
:1000A000B70120E030E040E05FE40E94B9010E9427
:1000B000A1039B01AC01205030404040504806C095
:1000C000C801B7010E94A1039B01AC01B901CA019B
:1000D0001F910F91FF90EF900895A0E0B0E0E3E74B
:1000E000F0E00C946C0BDC012B01FA019C91923036
:1000F00008F439C1EB018881823008F433C19430AF
:1001000069F4843009F02FC111969C91119789816F
:10011000981709F428C1AFE8B0E025C1843009F48C
:1001200021C18230A9F4923009F01DC19A01AD01BC
:1001300088E0EA010990AE01E90109929E0181502F
:10014000C1F7E201898111969C918923818308C1BD
:10015000923009F407C112962D903C901397EB0151
:100160008A819B811496AD90BD90CD90DC901797BD
:10017000EC80FD800E811F819101281B390BB90194
:1001800037FF04C066277727621B730B6032710547
:100190000CF061C0121613066CF537014801062EEB
:1001A00004C096948794779467940A94D2F721E0D8
:1001B00030E040E050E004C0220F331F441F551FC1
:1001C0006A95D2F721503040404050402E213F21C7
:1001D00040235123211531054105510521F021E02E
:1001E00030E040E050E079018A01E628F72808294C
:1001F00019293CC0232BD1F1260E371E35014601AB
:10020000062E04C096948794779467940A94D2F744
:1002100021E030E040E050E004C0220F331F441FD3
:10022000551F6A95D2F721503040404050402A2156
:100230003B214C215D21211531054105510521F05E
:1002400021E030E040E050E059016A01A628B728DB
:10025000C828D9280BC0821593052CF01C01AA24AC
:10026000BB24650103C0EE24FF24870111969C91F5
:10027000D20111968C91981709F445C0992339F051
:10028000A80197012A193B094C095D0906C0A6017E
:1002900095012E193F09400B510B57FD08C01182E3
:1002A0003382228224833583468357831DC081E0B5
:1002B00081833382228288279927DC01821B930B5A
:1002C000A40BB50B84839583A683B7830DC0220F3F
:1002D000331F441F551F24833583468357838281F0
:1002E000938101979383828324813581468157814D
:1002F000DA01C9010197A109B1098F5F9F4FAF4F83
:10030000BF4328F30BC0918333822282EA0CFB1C8B
:100310000C1D1D1DE482F5820683178383E0808314
:10032000248135814681578157FF1AC0C901AA2708
:1003300097FDA095BA2F81709070A070B0705695FF
:10034000479537952795822B932BA42BB52B848328
:100350009583A683B7838281938101969383828359
:10036000DF0101C0D201CD01CDB7DEB7E2E10C94CF
:10037000880BA0E2B0E0EFEBF1E00C94780B69831E
:100380007A838B839C832D833E834F835887E9E058
:10039000EE2EF12CEC0EFD1ECE010196B7010E944F
:1003A00092058E010F5E1F4FCE010596B8010E9487
:1003B00092058A8991E089278A8BC701B801AE012D
:1003C000475E5F4F0E946D000E94BD04A096E6E06C
:1003D0000C94940BA0E2B0E0E0EFF1E00C94780B09
:1003E00069837A838B839C832D833E834F835887D5
:1003F000F9E0EF2EF12CEC0EFD1ECE010196B701B7
:100400000E9492058E010F5E1F4FCE010596B80126
:100410000E949205C701B801AE01475E5F4F0E947E
:100420006D000E94BD04A096E6E00C94940BA0E23F
:10043000B0E0EDE1F2E00C946C0B69837A838B837E
:100440009C832D833E834F835887CE010196BE0146
:10045000675F7F4F0E949205CE010596BE016F5ED9
:100460007F4F0E9492059985923088F08989823069
:10047000C8F0943019F4823051F404C0843029F467
:10048000923081F48FE890E0C6C0923049F420E0C9
:100490009A858A89981321E02A87CE010996BBC0E4
:1004A000823049F420E09A858A89981321E02A8BCA
:1004B000CE014196B0C02D843E844F8458886D880B
:1004C0007E888F88988CEE24FF248701AA24BB2481
:1004D000650140E050E060E070E0E0E0F0E0C10184
:1004E00081709070892BE9F0E60CF71C081D191D2E
:1004F0009A01AB012A0D3B1D4C1D5D1D80E090E073
:10050000A0E0B0E0E614F7040805190520F481E046
:1005100090E0A0E0B0E0BA01A901480F591F6A1F9E
:100520007B1FAA0CBB1CCC1CDD1C97FE08C081E005
:1005300090E0A0E0B0E0A82AB92ACA2ADB2A3196C6
:10054000E032F10549F0660C771C881C991C569422
:10055000479437942794C3CFFA85EA892B893C893D
:100560008B859C85280F391F2E5F3F4F17C0CA010E
:1005700081709070892B61F016950795F794E79438
:1005800080E090E0A0E0B0E8E82AF92A0A2B1B2BD3
:1005900076956795579547952F5F3F4F77FDE7CF46
:1005A0000CC0440F551F661F771F17FD4160EE0CEE
:1005B000FF1C001F111F21503040403090E05907B0
:1005C00090E0690790E4790760F32B8F3C8FDB01A3
:1005D000CA018F779070A070B07080349105A1052A
:1005E000B10561F447FD0AC0E114F10401051105EC
:1005F00029F0405C5F4F6F4F7F4F40781A8EFE1797
:1006000011F081E08A8F4D8F5E8F6F8F78A383E02A
:10061000898FCE0149960E94BD04A096E2E10C9418
:10062000880BA8E1B0E0E7E1F3E00C94780B698374
:100630007A838B839C832D833E834F83588789E005
:10064000E82EF12CEC0EFD1ECE010196B7010E94A2
:1006500092058E010F5E1F4FCE010596B8010E94D4
:1006600092058985823040F08989823028F0C7015F
:10067000B8010E940A0601C08FEF6896E6E00C946C
:10068000940BA8E1B0E0E7E4F3E00C94780B698305
:100690007A838B839C832D833E834F83588789E0A5
:1006A000E82EF12CEC0EFD1ECE010196B7010E9442
:1006B00092058E010F5E1F4FCE010596B8010E9474
:1006C00092058985823040F08989823028F0C701FF
:1006D000B8010E940A0601C08FEF6896E6E00C940C
:1006E000940BA8E1B0E0E7E7F3E00C94780B6983A2
:1006F0007A838B839C832D833E834F83588789E045
:10070000E82EF12CEC0EFD1ECE010196B7010E94E1
:1007100092058E010F5E1F4FCE010596B8010E9413
:1007200092058985823040F08989823028F0C7019E
:10073000B8010E940A0601C081E06896E6E00C94C8
:10074000940BACE0B0E0E7EAF3E00C947C0B698337
:100750007A838B839C83CE010196BE016B5F7F4FB2
:100760000E9492058D81823061F1823050F1843097
:1007700021F48E81882351F12EC02F81388537FDD9
:1007800020C06E812F3131051CF06623F9F023C0A3
:100790008EE190E0821B930B29853A854B855C8521
:1007A00004C056954795379527958A95D2F76623C5
:1007B000B1F050954095309521953F4F4F4F5F4F89
:1007C0000EC020E030E040E050E009C02FEF3FEFE6
:1007D0004FEF5FE704C020E030E040E050E8B901AF
:1007E000CA012C96E2E00C94980BA8E0B0E0EBEF85
:1007F000F3E00C94740B7B018C016115710581058C
:10080000910519F482E0898360C083E089838EE1D9
:10081000C82ED12CDC82CB82ED82FE820F8318871A
:10082000C801B7010E946E04FC013197F7FF3BC07D
:10083000222733272E1B3F0B57016801022E04C0CD
:10084000D694C794B794A7940A94D2F740E050E0A6
:1008500060E070E081E090E0A0E0B0E004C0880FCC
:10086000991FAA1FBB1F2A95D2F70197A109B109A9
:100870008E219F21A023B1230097A105B10521F06E
:1008800041E050E060E070E04A295B296C297D2955
:100890004D835E836F8378878EE190E08E1B9F0B84
:1008A0009C838B8312C0309781F00E2E04C0EE0C17
:1008B000FF1C001F111F0A94D2F7ED82FE820F83E6
:1008C0001887CE1ADF0ADC82CB821A82CE0101960B
:1008D0000E94BD042896EAE00C94900BEF92FF92E0
:1008E0000F931F937B018C0180E0E81680E0F806EF
:1008F00081E0080780E0180788F48FEFE816F1041C
:100900000105110531F028F088E090E0A0E0B0E0AA
:1009100017C080E090E0A0E0B0E012C080E0E816F0
:1009200080E0F80680E0080781E0180728F088E1F9
:1009300090E0A0E0B0E004C080E190E0A0E0B0E092
:1009400020E230E040E050E0281B390B4A0B5B0B03
:1009500004C016950795F794E7948A95D2F7F701A6
:10096000E956FF4F8081281B310941095109C9010E
:100970001F910F91FF90EF900895DF92EF92FF92F9
:100980000F931F93FC01E480F58006811781D180CD
:100990008081823048F480E090E0A0E1B0E0E82A75
:1009A000F92A0A2B1B2BA5C0843009F49FC0823082
:1009B00021F4EE24FF24870105C0E114F1040105B0
:1009C000110519F4E0E0F0E096C0628173819FEFB9
:1009D000623879070CF05BC022E83FEF261B370B2B
:1009E0002A3131052CF020E030E040E050E02AC010
:1009F000B801A701022E04C07695679557954795D3
:100A00000A94D2F781E090E0A0E0B0E004C0880F43
:100A1000991FAA1FBB1F2A95D2F70197A109B109F7
:100A20008E219F21A023B1230097A105B10521F0BC
:100A300081E090E0A0E0B0E09A01AB01282B392BD7
:100A40004A2B5B2BDA01C9018F779070A070B070D0
:100A500080349105A105B10539F427FF09C0205C58
:100A60003F4F4F4F5F4F04C0215C3F4F4F4F5F4F91
:100A7000E0E0F0E02030A0E03A07A0E04A07A0E480
:100A80005A0710F0E1E0F0E079018A0127C06038F0
:100A9000710564F5FB01E158FF4FD801C7018F775D
:100AA0009070A070B07080349105A105B10539F443
:100AB000E7FE0DC080E490E0A0E0B0E004C08FE36A
:100AC00090E0A0E0B0E0E80EF91E0A1F1B1F17FF20
:100AD00005C016950795F794E794319687E016952B
:100AE0000795F794E7948A95D1F705C0EE24FF2483
:100AF0008701EFEFF0E06E2F679566276795902FDF
:100B00009F77D794DD24D7948E2F8695492F462B37
:100B1000582F5D29B701CA011F910F91FF90EF90E7
:100B2000DF900895FC01DB01408151812281622F19
:100B30006F7770E0221F2227221F9381892F880F51
:100B4000822B282F30E0991F9927991F11969C938B
:100B5000119721153105A9F541155105610571055B
:100B600011F482E037C082E89FEF13969C938E9336
:100B700012979A01AB0167E0220F331F441F551FE4
:100B80006A95D1F783E08C930DC0220F331F441F69
:100B9000551F12968D919C911397019713969C93D4
:100BA0008E931297203080E0380780E0480780E479
:100BB000580758F314962D933D934D935C931797D4
:100BC00008952F3F310579F44115510561057105EF
:100BD00019F484E08C93089564FF03C081E08C9342
:100BE00012C01C9210C02F57304013963C932E9386
:100BF000129783E08C9387E0440F551F661F771F81
:100C00008A95D1F7706414964D935D936D937C93A0
:100C1000179708951F93DC01FB019C91923008F413
:100C200047C08081823008F443C0943051F411965B
:100C30001C91843099F58181682F70E0611B7109E6
:100C40003FC0843021F0923031F48230B9F181819B
:100C5000882389F12DC011961C9111978230F1F0F3
:100C600081811817D9F412962D913C9113978281A6
:100C700093818217930794F028173907BCF01496D4
:100C80008D919D910D90BC91A02D2481358146813F
:100C90005781281739074A075B0718F4112341F0D9
:100CA0000AC082179307A407B50740F4112319F06F
:100CB00061E070E005C06FEF7FEF02C060E070E0C0
:100CC000CB011F9108950F931F9382E062E041E0F2
:100CD0000E94C10900ED17E0C8010197F1F782E019
:100CE00062E040E00E94C109C8010197F1F71F913D
:100CF0000F910895FF920F931F93F82E82E060E00A
:100D000041E00E94C10982E061E040E00E94C10927
:100D100000ED17E0C8010197F1F76F2D62956F7034
:100D200080E044E024E00E94AB0AC8010197F1F79B
:100D30000E94630680E06F2D44E024E00E94AB0A2D
:100D4000C8010197F1F70E9463061F910F91FF9070
:100D500008950E947A060895CF93DF93EC0103C0B3
:100D60000E947A06219688818823D1F7DF91CF915E
:100D70000895FF920F931F93F82E82E060E040E009
:100D80000E94C10982E061E040E00E94C10900EDDB
:100D900017E0C8010197F1F76F2D62956F7080E041
:100DA00044E024E00E94AB0AC8010197F1F70E94D9
:100DB000630680E06F2D44E024E00E94AB0AC80186
:100DC0000197F1F70E9463061F910F91FF9008951C
:100DD0000F931F93CF93DF938C01862F880F880F7B
:100DE000880F805C0E94B906C0E0D0E0F801EC0FEB
:100DF000FD1F80810E947A062196C830D105B1F787
:100E000080E80E94B906DF91CF911F910F9108955C
:100E1000CF92DF92EF92FF920F931F93CF93DF93C6
:100E20006B01C0E0D0E000E010E0E82EFF2409C034
:100E3000C601800F911F6C2F0E94E8062196085F63
:100E40001F4FCE15DF05A4F3DF91CF911F910F91B6
:100E5000FF90EF90DF90CF9008952F923F924F92A6
:100E60005F926F927F928F929F92AF92BF92CF923A
:100E7000DF92EF92FF920F931F93CF93DF9339018D
:100E80004A01613009F055C0C0E0D0E0482E552439
:100E900098EC292E312C48C08CE10E94B9066114CF
:100EA00071048104910409F43EC0C401B3010E949D
:100EB000F5035B016C0120E030E04AEF54E40E944E
:100EC00017027B018C0120E030E040E85FE30E94E4
:100ED000710388231CF461E070E022C0C801B701EF
:100EE00020E03FEF4FE757E40E9411031816A4F4E7
:100EF000C601B50120E030E040E251E40E94170253
:100F00000E94410005C0C1010197F1F76150704096
:100F100061157105C1F707C0C801B7010E94410002
:100F2000CB010197F1F72196C415D5050CF4B4CF88
:100F300057C0662309F054C0C0E0D0E0482E5524C5
:100F400088EC282E312C48C088E10E94B906611433
:100F500071048104910409F43EC0C401B3010E94EC
:100F6000F5035B016C0120E030E04AEF54E40E949D
:100F700017027B018C0120E030E040E85FE30E9433
:100F8000710388231CF461E070E022C0C801B7013E
:100F900020E03FEF4FE757E40E9411031816A4F436
:100FA000C601B50120E030E040E251E40E941702A2
:100FB0000E94410005C0C1010197F1F761507040E6
:100FC00061157105C1F707C0C801B7010E94410052
:100FD000CB010197F1F72196C415D5050CF4B4CFD8
:100FE000DF91CF911F910F91FF90EF90DF90CF9005
:100FF000BF90AF909F908F907F906F905F904F9039
:101000003F902F9008958F7060FD02C0805801C0FE
:1010100080540E94B906089584EF91E028EC30E0F6
:10102000F9013197F1F70197D9F782E060E041E0EB
:101030000E944E0982E061E041E00E944E0982E098
:1010400062E041E00E944E0980ED97E00197F1F7E0
:1010500080E064E041E00E944E0980E065E041E00C
:101060000E944E0980E066E041E00E944E0980E067
:1010700067E041E00E944E0982E00E94B90688E2E2
:101080000E94B9068CE00E94B90686E00E94B9066B
:1010900080E80E94B90681E00E94B90680EA9FE0DC
:1010A0000197F1F70895EF92FF920F931F93CF935B
:1010B000DF93FC0101900020E9F73197E81BF90B61
:1010C000BC01EC01CE0FDF1F20E030E040E050E03B
:1010D00031977F0100E010E00AC0FB019081888118
:1010E0008193BF0198832F5F3F4F4F4F5F4F2197F1
:1010F000D801C701821B930BA40BB50B2817390726
:101100004A075B0754F3DF91CF911F910F91FF9036
:10111000EF9008954F925F926F927F928F929F927D
:10112000AF92BF92CF92DF92EF92FF920F931F93F5
:10113000CF93DF932B013C01EA016B017C0197FF08
:1011400007C0CC24DD247601C61AD70AE80AF90ABA
:101150008824992454018E01080D191DC701B60178
:101160002AE030E040E050E00E942F0B605DF80183
:1011700060830894811C911CA11CB11CC701B6019D
:101180002AE030E040E050E00E942F0BC901DA0174
:101190006C017D011C141D041E041F04E4F277FE83
:1011A0000AC0FE01E80DF91D8DE280830894811CC0
:1011B000911CA11CB11CFE01E80DF91D1082CE018D
:1011C0000E945308DF91CF911F910F91FF90EF90F4
:1011D000DF90CF90BF90AF909F908F907F906F9057
:1011E0005F904F9008950F931F93DF93CF93CDB7E8
:1011F000DEB729970FB6F894DEBF0FBECDBF8E01C4
:101200000F5F1F4F29E0F80111922A95E9F7A80115
:101210000E948A08C8010E94AC0629960FB6F8946D
:10122000DEBF0FBECDBFCF91DF911F910F9108950B
:10123000DF92EF92FF920F931F93CF93DF93EE24F1
:10124000FF248701C8ECD0E020E8D22EDE0C8D2DE3
:101250000E94B906C801B7010E94F30884EC99E026
:10126000FE013197F1F70197D9F78D2D0E94B9064C
:1012700080E20E947A060894E11CF11C011D111DF8
:1012800080E5E816F10401051105F1F6DF91CF9133
:101290001F910F91FF90EF90DF9008954130B1F5CD
:1012A000813099F0813030F08230D1F0833009F014
:1012B00067C021C02AB381E090E002C0880F991F67
:1012C0006A95E2F7282B2ABB089527B381E090E0C6
:1012D00002C0880F991F6A95E2F7282B27BB089553
:1012E00024B381E090E002C0880F991F6A95E2F76D
:1012F000282B24BB089521B381E090E002C0880F21
:10130000991F6A95E2F7282B21BB08954423C1F564
:10131000813099F0813028F08230D9F0833081F526
:1013200024C02AB381E090E002C0880F991F6A951B
:10133000E2F7809582238ABB089527B381E090E08D
:1013400002C0880F991F6A95E2F78095822387BBB8
:10135000089524B381E090E002C0880F991F6A9538
:10136000E2F78095822384BB089521B381E090E069
:1013700002C0880F991F6A95E2F78095822381BB8E
:1013800008954130B1F5813099F0813030F08230EC
:10139000D1F0833009F067C021C02BB381E090E029
:1013A00002C0880F991F6A95E2F7282B2BBB08957E
:1013B00028B381E090E002C0880F991F6A95E2F798
:1013C000282B28BB089525B381E090E002C0880F48
:1013D000991F6A95E2F7282B25BB089522B381E077
:1013E00090E002C0880F991F6A95E2F7282B22BB74
:1013F00008954423C1F5813099F0813028F082307E
:10140000D9F0833081F524C02BB381E090E002C095
:10141000880F991F6A95E2F7809582238BBB089508
:1014200028B381E090E002C0880F991F6A95E2F727
:101430008095822388BB089525B381E090E002C0A7
:10144000880F991F6A95E2F78095822385BB0895DE
:1014500022B381E090E002C0880F991F6A95E2F7FD
:101460008095822382BB0895813091F0813028F0ED
:101470008230C9F0833061F521C02BB381E090E068
:1014800002C0880F991F6A95E2F728272BBB0895A1
:1014900028B381E090E002C0880F991F6A95E2F7B7
:1014A000282728BB089525B381E090E002C0880F6B
:1014B000991F6A95E2F7282725BB089522B381E09A
:1014C00090E002C0880F991F6A95E2F7282722BB97
:1014D0000895813051F0813030F0823041F0833016
:1014E00079F080E0089589B303C086B301C083B367
:1014F00090E002C0959587956A95E2F7817008950E
:1015000080B390E002C0959587956A95E2F7817067
:101510000895813049F0813028F0823039F08330ED
:1015200041F406C06ABB089567BB089564BB089583
:1015300061BB0895813049F0813028F0823039F064
:10154000833041F406C06BBB089568BB089565BB4A
:10155000089562BB0895382F70E0022E02C0660F16
:10156000771F0A94E2F781E090E002C0880F991F8C
:101570004A95E2F7019702C0880F991F2A95E2F772
:10158000282F313079F0313028F0323099F0333073
:1015900001F518C09BB3822F809589232623822BC7
:1015A0008BBB089598B3822F809589232623822BA5
:1015B00088BB089595B3822F809589232623822B9B
:1015C00085BB089592B3822F809589232623822B91
:1015D00082BB0895813051F0813030F0823041F08B
:1015E000833041F080E0089589B3089586B308956B
:1015F00083B3089580B30895DF93CF93CDB7DEB75B
:10160000AF970FB6F894DEBF0FBECDBFDE011196C7
:10161000E0E6F0E08FE201900D928150E1F70E9448
:101620000C08CE0101960E94AC0687E160E024EF31
:1016300031E040E050E00E942D0787E161E024EFB7
:1016400031E040E050E00E942D0788E893E128EC6B
:1016500030E0F9013197F1F70197D9F7FFCF97FB08
:10166000092E05260ED057FD04D014D00AD0001C38
:1016700038F450954095309521953F4F4F4F5F4F2F
:101680000895F6F790958095709561957F4F8F4FEF
:101690009F4F0895A1E21A2EAA1BBB1BFD010DC08E
:1016A000AA1FBB1FEE1FFF1FA217B307E407F50712
:1016B00020F0A21BB30BE40BF50B661F771F881FEE
:1016C000991F1A9469F760957095809590959B0184
:1016D000AC01BD01CF0108952F923F924F925F92CE
:1016E0006F927F928F929F92AF92BF92CF92DF9232
:1016F000EF92FF920F931F93CF93DF93CDB7DEB797
:10170000CA1BDB0B0FB6F894DEBF0FBECDBF09942A
:101710002A88398848885F846E847D848C849B8481
:10172000AA84B984C884DF80EE80FD800C811B818F
:10173000AA81B981CE0FD11D0FB6F894DEBF0FBEBE
:0A174000CDBFED010895F894FFCF2E
:10174A00546869732069732061206C6F6E67207317
:10175A007472696E6720746F20746573742074687C
:10176A006520444452414D206275666665720000E8
:10177A00000000000000000001020203030303044A
:10178A000404040404040405050505050505050506
:10179A0005050505050505060606060606060606E6
:1017AA0006060606060606060606060606060606CF
:1017BA0006060606060606070707070707070707B6
:1017CA00070707070707070707070707070707079F
:1017DA00070707070707070707070707070707078F
:1017EA00070707070707070707070707070707077F
:1017FA000707070707070708080808080808080866
:10180A00080808080808080808080808080808084E
:10181A00080808080808080808080808080808083E
:10182A00080808080808080808080808080808082E
:10183A00080808080808080808080808080808081E
:10184A00080808080808080808080808080808080E
:10185A0008080808080808080808080808080808FE
:10186A0008080808080808080808080808080808EE
:08187A0008080808080808002E
:00000001FF
