:100000000C942A000C943F000C943F000C943F0089
:100010000C943F000C943F000C943F000C943F0064
:100020000C943F000C943F000C943F000C943F0054
:100030000C943F000C943F000C943F000C943F0044
:100040000C943F000C943F000C943F000C943F0034
:100050000C943F0011241FBECFE5D8E0DEBFCDBF1A
:1000600010E0A0E6B0E0E0E9F4E002C005900D92F7
:10007000A836B107D9F70E94EF010C9446020C9400
:1000800000004130B1F5813099F0813030F082309C
:10009000D1F0833009F067C021C02AB381E090E03D
:1000A00002C0880F991F6A95E2F7282B2ABB089592
:1000B00027B381E090E002C0880F991F6A95E2F7AC
:1000C000282B27BB089524B381E090E002C0880F5D
:1000D000991F6A95E2F7282B24BB089521B381E08C
:1000E00090E002C0880F991F6A95E2F7282B21BB88
:1000F00008954423C1F5813099F0813028F0823091
:10010000D9F0833081F524C02AB381E090E002C0A9
:10011000880F991F6A95E2F7809582238ABB08951C
:1001200027B381E090E002C0880F991F6A95E2F73B
:100130008095822387BB089524B381E090E002C0BC
:10014000880F991F6A95E2F78095822384BB0895F2
:1001500021B381E090E002C0880F991F6A95E2F711
:100160008095822381BB08954130B1F5813099F0AB
:10017000813030F08230D1F0833009F067C021C087
:100180002BB381E090E002C0880F991F6A95E2F7D7
:10019000282B2BBB089528B381E090E002C0880F84
:1001A000991F6A95E2F7282B28BB089525B381E0B3
:1001B00090E002C0880F991F6A95E2F7282B25BBB3
:1001C000089522B381E090E002C0880F991F6A95DC
:1001D000E2F7282B22BB08954423C1F5813099F022
:1001E000813028F08230D9F0833081F524C02BB3E0
:1001F00081E090E002C0880F991F6A95E2F7809530
:1002000082238BBB089528B381E090E002C0880F61
:10021000991F6A95E2F78095822388BB089525B3DC
:1002200081E090E002C0880F991F6A95E2F78095FF
:10023000822385BB089522B381E090E002C0880F3D
:10024000991F6A95E2F78095822382BB08958130D9
:1002500091F0813028F08230C9F0833061F521C0FF
:100260002BB381E090E002C0880F991F6A95E2F7F6
:1002700028272BBB089528B381E090E002C0880FA7
:10028000991F6A95E2F7282728BB089525B381E0D6
:1002900090E002C0880F991F6A95E2F7282725BBD6
:1002A000089522B381E090E002C0880F991F6A95FB
:1002B000E2F7282722BB0895813051F0813030F0D9
:1002C000823041F0833079F080E0089589B303C033
:1002D00086B301C083B390E002C0959587956A9577
:1002E000E2F78170089580B390E002C095958795FC
:1002F0006A95E2F781700895813049F0813028F0E5
:10030000823039F0833041F406C06ABB089567BB80
:10031000089564BB089561BB0895813049F0813030
:1003200028F0823039F0833041F406C06BBB089569
:1003300068BB089565BB089562BB0895382F70E0CF
:10034000022E02C0660F771F0A94E2F781E090E068
:1003500002C0880F991F4A95E2F7019702C0880FE3
:10036000991F2A95E2F7282F313079F0313028F0A3
:10037000323099F0333001F518C09BB3822F80954D
:1003800089232623822B8BBB089598B3822F8095D7
:1003900089232623822B88BB089595B3822F8095CD
:1003A00089232623822B85BB089592B3822F8095C3
:1003B00089232623822B82BB0895813051F081301E
:1003C00030F0823041F0833041F080E0089589B30D
:1003D000089586B3089583B3089580B308958F92E6
:1003E0009F92AF92BF92DF92EF92FF920F931F9373
:1003F000DF93CF93CDB7DEB728970FB6F894DEBF63
:100400000FBECDBF81E06FEF0E947C0180E06FEFF7
:100410000E947C01DE011196E0E6F0E088E00190A8
:100420000D928150E1F7DD245E010894A11CB11CFE
:1004300038EC832E912C16C081E0F80160810E9477
:100440008D0180E197E2F4013197F1F70197D9F737
:100450000F5F1F4F0E151F0579F7D394F1E0FD15BF
:1004600008F4DD248D2D90E08C01000F111F000F8A
:10047000111F0A0D1B1D7C010894E11CF11CEE0CE0
:10048000FF1CEE0CFF1CEA0CFB1CD6CFF894FFCF30
:08049000010204081E1D1B17E8
:00000001FF
