:100000000C942A000C9434000C9434000C943400AA
:100010000C9434000C9434000C9434000C94340090
:100020000C9434000C9434000C9434000C94340080
:100030000C9434000C9434000C9434000C94340070
:100040000C9434000C9434000C9434000C94340060
:100050000C94340011241FBECFE5D8E0DEBFCDBF25
:100060000E9464020C9476020C9400004130B1F5B9
:10007000813099F0813030F08230D1F0833009F056
:1000800067C021C02AB381E090E002C0880F991FA9
:100090006A95E2F7282B2ABB089527B381E090E008
:1000A00002C0880F991F6A95E2F7282B27BB089595
:1000B00024B381E090E002C0880F991F6A95E2F7AF
:1000C000282B24BB089521B381E090E002C0880F63
:1000D000991F6A95E2F7282B21BB08954423C1F5A7
:1000E000813099F0813028F08230D9F0833081F569
:1000F00024C02AB381E090E002C0880F991F6A955E
:10010000E2F7809582238ABB089527B381E090E0CF
:1001100002C0880F991F6A95E2F78095822387BBFA
:10012000089524B381E090E002C0880F991F6A957A
:10013000E2F78095822384BB089521B381E090E0AB
:1001400002C0880F991F6A95E2F78095822381BBD0
:1001500008954130B1F5813099F0813030F082302E
:10016000D1F0833009F067C021C02BB381E090E06B
:1001700002C0880F991F6A95E2F7282B2BBB0895C0
:1001800028B381E090E002C0880F991F6A95E2F7DA
:10019000282B28BB089525B381E090E002C0880F8A
:1001A000991F6A95E2F7282B25BB089522B381E0B9
:1001B00090E002C0880F991F6A95E2F7282B22BBB6
:1001C00008954423C1F5813099F0813028F08230C0
:1001D000D9F0833081F524C02BB381E090E002C0D8
:1001E000880F991F6A95E2F7809582238BBB08954B
:1001F00028B381E090E002C0880F991F6A95E2F76A
:100200008095822388BB089525B381E090E002C0E9
:10021000880F991F6A95E2F78095822385BB089520
:1002200022B381E090E002C0880F991F6A95E2F73F
:100230008095822382BB0895813059F0813038F057
:10024000823049F0833049F020E030E011C089B3BA
:1002500005C086B303C083B301C080B321E030E0A2
:1002600002C0220F331F6A95E2F790E0282339235A
:10027000822F0895813049F0813028F0823039F0A2
:10028000833041F406C06ABB089567BB089564BB20
:10029000089561BB0895813049F0813028F08230A3
:1002A00039F0833041F406C06BBB089568BB0895F4
:1002B00065BB089562BB0895813091F0813028F0CC
:1002C0008230C9F0833061F521C02BB381E090E02A
:1002D00002C0880F991F6A95E2F728272BBB089563
:1002E00028B381E090E002C0880F991F6A95E2F779
:1002F000282728BB089525B381E090E002C0880F2D
:10030000991F6A95E2F7282725BB089522B381E05B
:1003100090E002C0880F991F6A95E2F7282722BB58
:100320000895EF92FF920F931F93CF93DF93E82EE0
:10033000F42EC0E0D0E0062F10E006C08E2D6C2F0A
:100340004F2D0E9436002196C017D107BCF3DF91D4
:10035000CF911F910F91FF90EF900895EF92FF9230
:100360000F931F93CF93DF93E82EF42EC0E0D0E0DD
:10037000062F10E006C08E2D6C2F4F2D0E94A90075
:100380002196C017D107BCF3DF91CF911F910F9138
:10039000FF90EF9008950895FF920F931F93F82E0A
:1003A00082E060E041E00E94A90082E061E040E07C
:1003B0000E94A90000ED17E0C8010197F1F780E065
:1003C0006F2D0E944B01C8010197F1F782E062E0B6
:1003D00041E00E94A900C8010197F1F782E062E0C4
:1003E00040E00E94A900C8010197F1F71F910F9109
:1003F000FF900895FF920F931F93F82E82E060E024
:1004000040E00E94A90082E061E040E00E94A90073
:1004100000ED17E0C8010197F1F780E06F2D0E9411
:100420004B01C8010197F1F782E062E041E00E94D0
:10043000A900C8010197F1F782E062E040E00E9464
:10044000A900C8010197F1F71F910F91FF9008953E
:100450000F931F9384EF91E028EC30E0F90131977E
:10046000F1F70197D9F782E060E041E00E943600A1
:1004700082E061E041E00E94360082E062E041E01B
:100480000E94360000ED17E0C8010197F1F780E007
:100490006FEF0E943A0188E30E94FA01C8010197B8
:1004A000F1F78EE00E94FA01C8010197F1F786E0AA
:1004B0000E94FA0181E00E94FA0180EA9FE0019720
:1004C000F1F71F910F9108950E94280281E60E9482
:1004D000CC0182E60E94CC0188E893E128EC30E070
:1004E000F9013197F1F70197D9F7FFCFF894FFCFD2
:00000001FF
