:100000000C942A000C9434000C9434000C943400AA
:100010000C9434000C9434000C9434000C94340090
:100020000C9434000C9434000C9434000C94340080
:100030000C9434000C9434000C9434000C94340070
:100040000C9434000C9434000C9434000C94340060
:100050000C94340011241FBECFE5D8E0DEBFCDBF25
:100060000E9448000C9454000C94000020E233E0FD
:1000700040E050E0E22FF32F3197F1F78A95D1F766
:1000800008952BE033E63A95F1F72A95E1F70895C4
:10009000D09A91E08BB389278BBB2BE033E63A955E
:0C00A000F1F72A95E1F7F6CFF894FFCFB6
:00000001FF
